:100000000C942A000C9447000C9447000C94470071
:100010000C9447000C9447000C9447000C94470044
:100020000C9447000C9447000C9447000C94470034
:100030000C9447000C9447000C9447000C94470024
:100040000C9447000C9447000C9447000C94470014
:100050000C94470011241FBECFE5D8E0DEBFCDBF12
:1000600010E0A0E6B0E0E0E5FCE002C005900D92F3
:10007000A23DB107D9F710E0A2EDB0E001C01D929A
:10008000A63DB107E1F70E947C040C9426060C946F
:10009000000040E00E94500008950E94560108951B
:1000A000823451F1833420F4813409F07BC007C0DD
:1000B000833409F43EC0843409F074C057C0413021
:1000C00069F42AB381E090E0AC0102C0440F551FEF
:1000D0006A95E2F7BA01622B6ABB08952AB381E000
:1000E00090E0AC0102C0440F551F6A95E2F7BA01D7
:1000F000609562236ABB0895413069F427B381E0BB
:1001000090E0AC0102C0440F551F6A95E2F7BA01B6
:10011000622B67BB089527B381E090E0AC0102C079
:10012000440F551F6A95E2F7BA016095622367BBD9
:100130000895413069F424B381E090E0AC0102C03D
:10014000440F551F6A95E2F7BA01622B64BB08950C
:1001500024B381E090E0AC0102C0440F551F6A95C2
:10016000E2F7BA016095622364BB0895413069F4F7
:1001700021B381E090E0AC0102C0440F551F6A95A5
:10018000E2F7BA01622B61BB089521B381E090E0F0
:10019000AC0102C0440F551F6A95E2F7BA016095A1
:1001A000622361BB0895823451F1833420F4813499
:1001B00009F07BC007C0833409F43EC0843409F0E1
:1001C00074C057C0413069F42BB381E090E0AC01BA
:1001D00002C0440F551F6A95E2F7BA01622B6BBB50
:1001E00008952BB381E090E0AC0102C0440F551F8D
:1001F0006A95E2F7BA01609562236BBB08954130BE
:1002000069F428B381E090E0AC0102C0440F551FAF
:100210006A95E2F7BA01622B68BB089528B381E0C2
:1002200090E0AC0102C0440F551F6A95E2F7BA0195
:100230006095622368BB0895413069F425B381E07D
:1002400090E0AC0102C0440F551F6A95E2F7BA0175
:10025000622B65BB089525B381E090E0AC0102C03C
:10026000440F551F6A95E2F7BA016095622365BB9A
:100270000895413069F422B381E090E0AC0102C0FE
:10028000440F551F6A95E2F7BA01622B62BB0895CD
:1002900022B381E090E0AC0102C0440F551F6A9583
:1002A000E2F7BA016095622362BB08958234F1F0EF
:1002B000833420F4813409F04FC006C0833441F107
:1002C000843409F049C036C029B381E090E0062E9D
:1002D00002C0880F991F0A94E2F730E0822393232B
:1002E00002C0959587956A95E2F7089526B381E057
:1002F00090E0062E02C0880F991F0A94E2F730E0C2
:100300008223932302C0959587956A95E2F7089515
:1003100023B381E090E0062E02C0880F991F0A9453
:10032000E2F730E08223932302C0959587956A9582
:10033000E2F7089520B381E090E0062E02C0880F16
:10034000991F0A94E2F730E08223932302C0959527
:1003500087956A95E2F7089580E008958234B9F0B0
:10036000833418F48134C9F505C08334E9F084344A
:10037000A1F527C02BB381E090E0AC0102C0440F8F
:10038000551F6A95E2F7BA0162276BBB089528B33F
:1003900081E090E0AC0102C0440F551F6A95E2F77E
:1003A000BA01622768BB089525B381E090E0AC01F3
:1003B00002C0440F551F6A95E2F7BA01622765BB78
:1003C000089522B381E090E0AC0102C0440F551FB4
:1003D0006A95E2F7BA01622762BB0895823461F040
:1003E000833418F4813469F405C0833439F08434DB
:1003F00041F406C06ABB089567BB089564BB0895C5
:1004000061BB0895823461F0833418F4813469F457
:1004100005C0833439F0843441F406C06BBB0895C1
:1004200068BB089565BB089562BB0895823461F08E
:10043000833418F4813471F405C0833439F0843482
:1004400049F406C089B3089586B3089583B3089527
:1004500080B3089580E00895823451F1833420F40C
:10046000813409F07BC007C0833409F43EC0843472
:1004700009F074C057C0413069F42BB381E090E0BB
:10048000AC0102C0440F551F6A95E2F7BA01622B16
:100490006BBB08952BB381E090E0AC0102C0440F28
:1004A000551F6A95E2F7BA01609562236BBB089508
:1004B000413069F428B381E090E0AC0102C0440F00
:1004C000551F6A95E2F7BA01622B68BB089528B3FD
:1004D00081E090E0AC0102C0440F551F6A95E2F73D
:1004E000BA016095622368BB0895413069F425B371
:1004F00081E090E0AC0102C0440F551F6A95E2F71D
:10050000BA01622B65BB089525B381E090E0AC0190
:1005100002C0440F551F6A95E2F7BA016095622345
:1005200065BB0895413069F422B381E090E0AC01ED
:1005300002C0440F551F6A95E2F7BA01622B62BBF5
:10054000089522B381E090E0AC0102C0440F551F32
:100550006A95E2F7BA016095622362BB08956F70F5
:10056000823481F0833418F48134F1F405C083348B
:1005700079F08434C9F412C08BB3807F8BBB8BB30A
:10058000862B8BBB88B3807F88BB88B3862B88BBC8
:1005900085B3807F85BB85B3862B85BB82B3807F87
:1005A00082BB82B3682B62BB08956295607F823400
:1005B00081F0833418F48134F1F405C0833479F088
:1005C0008434C9F412C08BB38F708BBB8BB3862B72
:1005D0008BBB88B38F7088BB88B3862B88BB85B3F1
:1005E0008F7085BB85B3862B85BB82B38F7082BB32
:1005F00082B3682B62BB08958EBB9FBB6DBBE29A32
:10060000E19AE199FECF08958EBB9FBBE09A8DB32E
:10061000089584E460E041E00E94500084E461E0D9
:1006200041E00E94500084E462E041E00E945000FA
:1006300084E463E041E00E94500084E464E040E030
:100640000E94500084E465E040E00E94500084E491
:1006500066E040E00E94500084E467E040E00E94D1
:10066000500084E464E041E00E942C0284E465E0F0
:1006700041E00E942C0284E466E041E00E942C02EA
:1006800084E467E041E00E942C0208950F931F93D9
:10069000CF93DF93CDB7DEB760970FB6F894DEBF88
:1006A0000FBECDBFDE011196E0E6F0E080E10190E3
:1006B0000D928150E1F700E084E460E041E00E94A7
:1006C000D30084E461E041E00E94D30084E462E06E
:1006D00041E00E94D30084E463E041E00E94D30043
:1006E00084E4602F40E00E94D30010E0612F6C5F33
:1006F00084E40E945601882361F4E02FF0E0EE0FBD
:10070000FF1FEE0FFF1FE10FF11DEC0FFD1F818199
:1007100004C01F5F143051F70BC060960FB6F894F9
:10072000DEBF0FBECDBFDF91CF911F910F91089516
:100730000F5F043009F68FEFF0CF82E460E041E014
:100740000E94D3008FE99FE00197F1F700C00000FD
:1007500082E460E040E00E94D3008FE99FE00197CF
:10076000F1F700C000000895682F81E40E940202A2
:1007700082E461E040E00E94D3000E949D038FEC80
:1007800097E00197F1F700C0000008958FEF91EE18
:10079000A4E081509040A040E1F700C0000081E457
:1007A00060E041E00E94500081E461E041E00E948D
:1007B000500081E462E041E00E94500081E463E087
:1007C00041E00E94500081E464E041E00E9450005A
:1007D00081E465E041E00E94500081E466E041E090
:1007E0000E94500081E467E041E00E94500082E4F2
:1007F00060E041E00E94500082E462E041E00E943B
:10080000500082E461E041E00E94500082E462E036
:1008100040E00E94D30088E30E94B403AFECB7E04D
:100820001197F1F700C000008CE00E94B4038FEC38
:1008300097E00197F1F700C0000081E00E94B40347
:10084000AFE1BEE41197F1F700C0000086E00E941E
:10085000B4038FEC97E00197F1F700C00000089512
:10086000682F81E40E94020282E461E041E00E947C
:10087000D3000E949D038FEC97E00197F1F700C031
:1008800000000895CF93DF93EC018881882331F035
:1008900021960E94300489918823D9F7DF91CF9166
:1008A000089581E00E94B4038FE19EE40197F1F77F
:1008B00000C000000895282F2150223070F46131CB
:1008C00070F4662371F0813019F4962F91580AC0A4
:1008D000823041F4962F915405C090E803C090E80F
:1008E00001C090E8892F0E94B4038FEC97E0019734
:1008F000F1F700C0000008952F923F924F925F924F
:100900006F927F928F929F92BF92CF92DF92EF92DF
:10091000FF920F931F93CF93DF930F2EF5ED8F2E42
:10092000F0E09F2EF02D0F2EFDEF6F2EFFEF7F2EAC
:10093000F02D680C791CD62CC72C0E94C6030E948F
:10094000090380E290E00E9404038F3FA9F580E74D
:1009500090E00E94420401E210E00E944603C82F8A
:100960008F3FD9F30E9430048FEF94E3ACE08150C5
:100970009040A040E1F700C00000602F675181E087
:100980000E945B048AE20E9430048FEF94E3ACE0A3
:1009900081509040A040E1F700C00000C8016C2FDA
:1009A0000E94FC020F5F1F4F05321105B1F680E275
:1009B00090E060E00E94FC020F2EF3E0BF2EF02DCD
:1009C000EE24EA9424010894410851080F2EFEEF0A
:1009D0002F2EFFEF3F2EF02D280C391C0E945104C2
:1009E000D401EC92F201E082D101EC92F301E082B9
:1009F0008AE790E00E944204CD2DDC2D0D2D1C2DA8
:100A00000F2EFCE0FF2EF02D0E944603D8018C93A0
:100A1000813409F084C08FEF91EEA4E081509040C2
:100A2000A040E1F700C000000E94510486E890E079
:100A30000E944204D401EC92F201E082D101EC92D6
:100A4000F301E0820AE00E94460388838F3FD9F3D6
:100A50000E9430048FEF94E3ACE081509040A040BE
:100A6000E1F700C0000081E0602F0E945B048AE291
:100A70000E9430048FEF94E3ACE081509040A0409E
:100A8000E1F700C000000F5F21960E30E1F681E231
:100A900090E00E940403A2EDB0E09C91891779F5E3
:100AA00082E290E00E940403E3EDF0E09081891778
:100AB00031F583E290E00E940403A4EDB0E09C9144
:100AC0008917E9F484E290E00E940403F401908124
:100AD0008917A9F40E94510480E990E00E94420421
:100AE0008FEF94E3ACE081509040A040E1F700C06C
:100AF000000080E290E06FEF0E94FC021ECF0E9497
:100B000051048FE990E00E9442048FEF94E3ACE03F
:100B100081509040A040E1F700C000005FCF8F3FC0
:100B200009F472CF0E9430048FEF94E3ACE081505F
:100B30009040A040E1F700C0000081E06F2D0E94CE
:100B40005B048AE20E9430048FEF94E3ACE08150B2
:100B50009040A040E1F700C00000F3940F5F1F4FEA
:100B600090E1F91609F050CF81E290E00E94040371
:100B7000A2EDB0E09C91891749F582E290E00E94D5
:100B80000403E3EDF0E09081891701F583E290E042
:100B90000E940403A4EDB0E09C918917B9F484E2AB
:100BA00090E00E940403F4019081891779F40E9477
:100BB000510480E990E00E94420482E061E00E94DA
:100BC0005B048EEA90E00E9442042CC0BA94E1F0EB
:100BD0000E9451048FE990E00E94420482E061E0AB
:100BE0000E945B048AEB90E00E9442048B2D805DA2
:100BF0000E9430048FEF99E6A8E181509040A04018
:100C0000E1F700C00000EACE0E9451048FE990E0B5
:100C10000E94420482E061E00E945B0486EC90E066
:100C20000E94420480E090E0DF91CF911F910F91EC
:100C3000FF90EF90DF90CF90BF909F908F907F902C
:100C40006F905F904F903F902F900895F894FFCF52
:100C50003738392F3435362A3132332D41303D2B58
:100C600053657420706173733A00436865636B2049
:100C7000706173733A006F6C6420706173733A0033
:100C800052696768742070617373776F726400577C
:100C9000726F6E672070617373776F726400536157
:100CA0006665206F70656E656400547269657320B7
:100CB0006C6566743A005361666520636C6F73659A
:020CC0006400CE
:00000001FF
